:020000040000FA
:04000000FEEF17F008
:1006000000000450800B0D6E04500424136E03AEE2
:100610000CEF03F00EEF03F00FEF03F01380135015
:10062000D8B415EF03F017EF03F02AEF03F0132807
:10063000D8A41DEF03F01FEF03F027EF03F0000E27
:10064000016E000E026E000E036E000E046E038E2D
:1006500032EF03F0000E016E000E026E000E036E0C
:10066000000E046E0850800B0D1A08500824126EFC
:1006700007AE3DEF03F03FEF03F040EF03F01280D1
:100680001250D8B446EF03F048EF03F05BEF03F0ED
:100690001228D8A44EEF03F050EF03F058EF03F008
:1006A000000E056E000E066E000E076E000E086E40
:1006B000078E63EF03F0000E056E000E066E000E4F
:1006C000076E000E086E1250D8B469EF03F06BEF9E
:1006D00003F073EF03F01350D8A471EF03F073EF3E
:1006E00003F07DEF03F0000E016E000E026E000EAF
:1006F000036E000E046E13EF05F007500102F3CFF6
:1007000018F0F4CF19F018500E6E0F6A106A116AC3
:100710001950146E156A166A176A06500202F3CF52
:1007200018F0F4CF19F018500E26000E0F221022E8
:10073000112219501426000E1522162217220550D8
:100740000302F3CF18F0F4CF19F018500E26000E64
:100750000F221022112219501426000E15221622E3
:10076000172210C011F00FC010F00EC00FF00E6A6B
:1007700005500202F3CF18F0F4CF19F018500E26EE
:1007800019500F22000E1022000E112206500102F5
:10079000F3CF18F0F4CF19F018500E2619500F228D
:1007A000000E1022000E112210C011F00FC010F028
:1007B0000EC00FF00E6A05500102F3CF18F0F4CF0F
:1007C00019F018500E2619500F22000E1022000E9C
:1007D000112207500202F3CF18F0F4CF19F018508D
:1007E000142619501522000E1622000E172206504C
:1007F0000302F3CF18F0F4CF19F018501426195053
:100800001522000E1622000E172207500302F3CF06
:1008100018F0F4CF19F01850096E19500A6E0B6ACF
:100820000C6A0BC00CF00AC00BF009C00AF0096A90
:10083000095014260A5015220B5016220C5017226C
:100840000EC009F00FC00AF010C00BF011C00CF080
:10085000190E30EF04F0D8900C320B320A32093204
:10086000E82E2BEF04F0095014260A5015220B50E5
:1008700016220C50172210C011F00FC010F00EC03D
:100880000FF00E6A125013C009F00A6A0926000E12
:100890000A22820E0924186EFF0E0A20196E66EFD6
:1008A00004F0D890143615361636173611AE5BEFB5
:1008B00004F05DEF04F05EEF04F01480D8900E3683
:1008C0000F36103611361806D8A0190616AE6BEF83
:1008D00004F06DEF04F051EF04F0126A11AE73EF03
:1008E00004F075EF04F099EF04F0FF0E0E14096E9A
:1008F000FF0E0F140A6EFF0E10140B6E7F0E1114F4
:100900000C6E09500A100B100C10D8B48AEF04F0CA
:100910008CEF04F090EF04F0010E126E99EF04F0EA
:1009200014A095EF04F097EF04F099EF04F08CEF2A
:1009300004F01250D8B49FEF04F0A1EF04F0C5EF1B
:1009400004F0010E1426000E15221622172217A0FD
:10095000ACEF04F0AEEF04F0C5EF04F014C009F002
:1009600015C00AF016C00BF017C00CF00C340C3296
:100970000B320A32093209C014F00AC015F00BC05C
:1009800016F00CC017F0184A192A19BED0EF04F05F
:10099000195008E11828D8A0D0EF04F0D2EF04F0E5
:1009A000DCEF04F0000E146E000E156E800E166E55
:1009B0007F0E176E09EF05F019BEE9EF04F019502C
:1009C00006E11804D8B0E7EF04F0E9EF04F0F4EF23
:1009D00004F0000E146E000E156E000E166E000E62
:1009E000176E0D6A09EF05F018C013F0FF0E14160C
:1009F000FF0E15167F0E1616000E171613A003EF26
:100A000005F005EF05F006EF05F0168ED8901330CF
:100A1000176E0D50171214C001F015C002F016C069
:100A200003F017C004F012001950800B266E195005
:100A300019242D6E18AE1FEF05F021EF05F022EFFF
:100A400005F02D802D50D8B428EF05F02AEF05F0E1
:100A50003EEF05F02D28D8A430EF05F032EF05F079
:100A60003AEF05F0000E166E000E176E000E186EAF
:100A7000000E196E188E196A46EF05F0000E166EFC
:100A8000000E176E000E186E000E196E1D50800BB2
:100A9000261A1D501D242E6E1CAE51EF05F053EF8B
:100AA00005F054EF05F02E802E50D8B45AEF05F023
:100AB0005CEF05F070EF05F02E28D8A462EF05F08A
:100AC00064EF05F06CEF05F0000E1A6E000E1B6E61
:100AD000000E1C6E000E1D6E1C8E1D6A78EF05F058
:100AE000000E1A6E000E1B6E000E1C6E000E1D6EA8
:100AF0001A501B101C101D10D8A481EF05F083EFB5
:100B000005F09BEF05F0000E166E000E176E000E3E
:100B1000186E000E196E800E18127F0E19122650D4
:100B2000191216C016F017C017F018C018F019C027
:100B300019F0DBEF06F02D50D8A4A1EF05F0A3EFDC
:100B400005F0ADEF05F0000E166E000E176E000EEC
:100B5000186E000E196EDBEF06F02E502DC01EF041
:100B60001F6A1E5E000E1F5A7F0E1E24276E000E87
:100B70001F20286E16C022F017C023F018C024F0E2
:100B800019C025F0000E166E000E176E000E186EBE
:100B9000000E196E000E296E000E2A6E000E2B6ECE
:100BA000000E2C6E2E6A0DEF06F02E50D8B4DBEF3F
:100BB00005F0DDEF05F0F4EF05F0D890223623368E
:100BC00024362536D89016361736183619362CAEF8
:100BD000ECEF05F0EEEF05F0EFEF05F01680D890A2
:100BE00029362A362B362C361A50225C1B502358B5
:100BF0001C5024581D502558D8A001EF06F003EFD3
:100C000006F00CEF06F02C8C1A50225E1B50235A73
:100C10001C50245A1D50255A2E2A190E2E6413EFEB
:100C200006F015EF06F0D5EF05F022502310241042
:100C30002510D8B41EEF06F020EF06F038EF06F0CE
:100C4000298038EF06F0D890163617361836193640
:100C50002CAE2DEF06F02FEF06F030EF06F01680E9
:100C6000D89029362A362B362C362706D8A02806C7
:100C700018AE3DEF06F03FEF06F023EF06F02E6AC8
:100C80002CAE45EF06F047EF06F06BEF06F0FF0ED7
:100C900029141E6EFF0E2A141F6EFF0E2B14206ED9
:100CA0007F0E2C14216E1E501F1020102110D8B45E
:100CB0005CEF06F05EEF06F062EF06F0010E2E6EBE
:100CC0006BEF06F016A067EF06F069EF06F06BEF2A
:100CD00006F05EEF06F02E50D8B471EF06F073EF19
:100CE00006F097EF06F0010E1626000E17221822C6
:100CF000192219A07EEF06F080EF06F097EF06F0BC
:100D000016C01EF017C01FF018C020F019C021F047
:100D10002134213220321F321E321EC016F01FC075
:100D200017F020C018F021C019F0274A282A28BE41
:100D3000A2EF06F0285008E12728D8A0A2EF06F07D
:100D4000A4EF06F0AFEF06F0000E286E2768000E45
:100D5000166E000E176E000E186E000E196E28BE6D
:100D6000BCEF06F0285006E12704D8B0BAEF06F031
:100D7000BCEF06F0C9EF06F0000E286E000E276EDD
:100D8000000E166E000E176E000E186E000E196E15
:100D9000266A27C02DF02DA0D0EF06F0D2EF06F086
:100DA000D5EF06F0188ED6EF06F0189ED8902D30AD
:100DB000196E8FEF05F01200000E4F6E000E4E6E92
:100DC000000E4C6E000E4B6E000E486E000E476E0D
:100DD000000E4A6E000E496E000E436E000E446E09
:100DE000000E456E000E466E13EC0CF005EC0CF098
:100DF0008EEC0AF08BEC0BF0939E819EAE0E1A6E79
:100E0000470E1B6E250E1C6E410E1D6E040EB0ECBF
:100E10000BF001C008F002C009F00A6A0B6A000E6C
:100E200079EC08F008C016F009C017F00AC018F0F5
:100E30000BC019F014EC05F016C02FF017C030F0FD
:100E400018C031F019C032F053EC09F02FC047F050
:100E500030C048F047C001F048C002F0000E046EF8
:100E60000A0E036ED6EC09F00150300F3B6E47C0FE
:100E700009F048C00AF0000E0C6E0A0E0B6E37EC3B
:100E80000AF00950300F3C6E000E026E020E016E29
:100E90003B0E036E100EDDEC0AF0030E3A6E8A0E66
:100EA000396E560EE82EFED7392EFCD73A2EFAD7D9
:100EB000060EB0EC0BF0050E0102F3CF39F0F4CFC3
:100EC0003AF00202F3503A2639C008F03AC009F06D
:100ED0000A6A0B6A000E79EC08F008C016F009C027
:100EE00017F00AC018F00BC019F0000E1A6EC00EF1
:100EF0001B6E7F0E1C6E440E1D6E14EC05F016C0AA
:100F000043F017C044F018C045F019C046F0000E79
:100F1000056E000E066EC80E076E420E086E43C0C8
:100F200001F044C002F045C003F046C004F001ECFB
:100F300003F001C02FF002C030F003C031F004C054
:100F400032F053EC09F02FC04BF030C04CF04BC0E6
:100F500001F04CC002F0000E046E640E036ED6EC7D
:100F600009F00150300F3B6E000E046E0A0E036E46
:100F70004BC001F04CC002F0D6EC09F001C009F002
:100F800002C00AF0000E0C6E0A0E0B6E37EC0AF06F
:100F90000950300F3C6E4BC009F04CC00AF0000EF7
:100FA0000C6E0A0E0B6E37EC0AF00950300F3D6ED6
:100FB000000E026E030E016E3B0E036E200EDDEC82
:100FC0000AF0030E3A6E8A0E396E560EE82EFED7E0
:100FD000392EFCD73A2EFAD7010E27EC0BF04D6EC6
:100FE0004D04D8A4F6EF07F0F8EF07F01FEF08F074
:100FF00049044A10D8A4FFEF07F001EF08F009EF09
:1010000008F0000E4F6E000E4E6E000E4A6E000E7F
:10101000496E4FBE17EF08F04F5007E1060E4E5CC9
:10102000D8B015EF08F017EF08F01BEF08F04E4AA4
:101030004F2A1FEF08F0000E4F6E060E4E6E020E86
:101040004D18D8A426EF08F028EF08F04DEF08F06F
:1010500049044A10D8A42FEF08F031EF08F037EF19
:1010600008F0000E4F6E070E4E6E4DEF08F04FBEAB
:1010700042EF08F04F5008E14E04D8A042EF08F0CC
:1010800044EF08F049EF08F04E06D8A04F064DEFA8
:1010900008F0000E4F6E000E4E6E030E4D18D8A4D1
:1010A00054EF08F056EF08F05EEF08F0000E4F6EB8
:1010B000070E4E6E000E4A6E010E496E4E50300FF6
:1010C0003B6E000E026E010E016E3B0E036E300E83
:1010D000DDEC0AF0030E3A6E8A0E396E560EE82EDB
:1010E000FED7392EFCD73A2EFAD7FEEF06F0FEEFE8
:1010F00017F0106E1050D8B480EF08F082EF08F0AF
:10110000A4EF08F00BBE89EF08F087EF08F0A4EF1A
:1011100008F008C00CF009C00DF00AC00EF00BC0BA
:101120000FF00C1E0D1E0E1E0F1E0C2A000E0D229F
:101130000E220F220CC012F00DC013F00EC014F0DE
:101140000FC015F0ACEF08F008C012F009C013F0A2
:101150000AC014F00BC015F0085009100A100B104B
:10116000D8A4B5EF08F0B7EF08F0C1EF08F0000E13
:10117000086E000E096E000E0A6E000E0B6E52EF26
:1011800009F0960E116ECBEF08F0112AD8901532A7
:10119000143213321232000E12140C6E000E13149D
:1011A0000D6E000E14140E6EFE0E15140F6E0C5004
:1011B0000D100E100F10D8A4E0EF08F0E2EF08F0C9
:1011C000C5EF08F0F0EF08F0112A010E1226000E0C
:1011D000132214221522D8901532143213321232EF
:1011E000000E12140C6E000E13140D6E000E14146B
:1011F0000E6EFF0E15140F6E0C500D100E100F100A
:10120000D8A405EF09F007EF09F0E4EF08F00FEFBD
:1012100009F01106D890123613361436153614BE5E
:1012200014EF09F016EF09F01EEF09F0020E11603D
:101230001CEF09F01EEF09F009EF09F011B023EFE0
:1012400009F025EF09F026EF09F0149ED89011322D
:1012500011C00CF00D6A0E6A0F6A0CC00FF00E6A16
:101260000D6A0C6A0C5012120D5013120E5014120B
:101270000F5015121050D8B440EF09F042EF09F0AA
:101280004AEF09F00BBE49EF09F047EF09F04AEFCA
:1012900009F0158E12C008F013C009F014C00AF04E
:1012A00015C00BF0120031343234386E3850D8A4E7
:1012B0005CEF09F05EEF09F068EF09F0000E2F6EA9
:1012C000000E306E000E316E000E326ED5EF09F05A
:1012D0002FC033F030C034F031C035F032C036F0BA
:1012E000200E78EF09F0D89036323532343233326E
:1012F000E82E73EF09F03350376E318EFF0E2F1644
:10130000FF0E3016FF0E3116000E3216960E385EA6
:1013100038BE8FEF09F08DEF09F0A5EF09F03850D6
:10132000800A970FD8B097EF09F099EF09F09BEF7B
:1013300009F05EEF09F0D8903232313230322F327C
:10134000383E9BEF09F0BDEF09F01F0E3864ABEF9C
:1013500009F0ADEF09F0B5EF09F05EEF09F0D890B4
:101360002F3630363136323638063850D8A4BBEFF7
:1013700009F0BDEF09F0AFEF09F03750D8B4C3EF73
:1013800009F0C5EF09F0CDEF09F0321E311E301E15
:101390002F6C000E3022312232222FC02FF030C0AD
:1013A00030F031C031F032C032F01200066A04BEB3
:1013B000DEEF09F0DCEF09F0E4EF09F0036C041E46
:1013C000D8B0042A010E066E02BEEBEF09F0E9EF79
:1013D00009F0F1EF09F0016C021ED8B0022A010EEB
:1013E000061A000E086E000E076E03500410D8B4E3
:1013F000FCEF09F0FEEF09F026EF0AF0010E056E92
:1014000006EF0AF0D89003360436052A04AE0BEF37
:101410000AF00DEF0AF002EF0AF0D890073608360E
:101420000350015C04500258D8A019EF0AF01BEFDA
:101430000AF020EF0AF00350015E0450025A0780C0
:10144000D89004320332052E0DEF0AF00650D8B4BE
:101450002CEF0AF02EEF0AF032EF0AF0076C081EAC
:10146000D8B0082A07C001F008C002F012000E6AC6
:101470000ABE3FEF0AF03DEF0AF045EF0AF0096CB3
:101480000A1ED8B00A2A010E0E6E0CBE4CEF0AF0EE
:101490004AEF0AF050EF0AF00B6C0C1ED8B00C2A81
:1014A0000B500C10D8B457EF0AF059EF0AF07DEF4B
:1014B0000AF0010E0D6E61EF0AF0D8900B360C3673
:1014C0000D2A0CAE66EF0AF068EF0AF05DEF0AF045
:1014D0000B50095C0C500A58D8A071EF0AF073EF5A
:1014E0000AF077EF0AF00B50095E0C500A5AD890B8
:1014F0000C320B320D2E68EF0AF00E50D8B483EF89
:101500000AF085EF0AF089EF0AF0096C0A1ED8B0DC
:101510000A2A09C009F00AC00AF01200956A94501C
:10152000F80B946E8290C30E036ECD0EE82EFED79C
:10153000032EFCD70000000E016E330ED3EC0BF02F
:101540001B0E036E9E0EE82EFED7032EFCD700D096
:10155000000E016E330ED3EC0BF0A60EE82EFED774
:1015600000D0000E016E330ED3EC0BF000D000D093
:101570000000000E016E020ED3EC0BF0000E016EA7
:10158000380ED3EC0BF0A60EE82EFED700D0000EDE
:10159000016E010ED3EC0BF0040E036E3E0EE82E2E
:1015A000FED7032EFCD7000E016E0C0ED3EC0BF011
:1015B000A60EE82EFED700D01200046E818E0F0119
:1015C000436B446B04C041FF426B01C045FF0350B5
:1015D000D96EDA6ADF50466F0350D96EDA6A010EAF
:1015E000D926DF50476F0350D96EDA6A020ED9262A
:1015F000DF50486F0350D96EDA6A030ED926DF50E8
:10160000496F0350D96EDA6A040ED926DF504A6F4B
:101610000350D96EDA6A050ED926DF504B6F03509E
:10162000D96EDA6A060ED926DF504C6F0350D96E98
:10163000DA6A070ED926DF504D6F408740B723EF97
:101640000BF025EF0BF01EEF0BF040511200016E76
:101650000104D8A42EEF0BF030EF0BF053EF0BF09A
:1016600061EC0BF0526E5228D8B439EF0BF03BEF1F
:101670000BF047EF0BF05350D8B441EF0BF043EFB2
:101680000BF047EF0BF0536A525060EF0BF052280B
:10169000D8A44DEF0BF04FEF0BF05FEF0BF0010E06
:1016A000536E5FEF0BF00150D8A459EF0BF05BEFD6
:1016B0000BF05FEF0BF061EC0BF060EF0BF0FF0E47
:1016C0001200819A818C818E81B269EF0BF06BEFF1
:1016D0000BF06EEF0BF0010E8AEF0BF0818A819C0C
:1016E000818E81B276EF0BF078EF0BF07BEF0BF091
:1016F000020E8AEF0BF0818A818C819E819E81B2DD
:1017000084EF0BF086EF0BF089EF0BF0030E8AEFFE
:101710000BF0FF0E1200939493861F0E6F166F8EC0
:10172000800E6E18D8A497EF0BF099EF0BF090EFA6
:101730000BF0776AE10E706E1B0E716E030E726E07
:101740000D01D46B0F01026B036B700E006F016B08
:101750008F0E186F19691F0E6F166F50606A120096
:10176000076E07C003F0D8900336D8900336C250F6
:10177000C30B0310C26EC282C2B2C1EF0BF0C3EF43
:101780000BF0BCEF0BF0C350C4CF03F0046A03C0EE
:1017900004F0036A0310056E0450066E05C001F0E4
:1017A00006C002F01200026E01B0D9EF0BF0DCEFC0
:1017B0000BF08282DDEF0BF0829202C083FF828405
:1017C0008294958E828082928284829483BEEBEF93
:1017D0000BF0EDEF0BF0E4EF0BF08290959E120012
:1017E000000EF66E300EF76E000EF86E0900F5CFA3
:1017F00053F000EE60F00D0EEE6AE806FDE1526A6D
:10180000516A506A0001DCEF06F0C08EC09AC088B1
:10181000C096C090C082C094C292C19AC198C46A56
:10182000C36AC28012000F0EC16E1E0E936EF19E2F
:081830008150E009816E1200F5
:052FFC00F0EF0BF001F5
:020000040020DA
:08000000FFFFFFFFFFFFFFFF00
:020000040030CA
:0E000000FF071F1FFF8285FF0FC00FE00F409C
:00000001FF
