:020000040000FA
:04000000FEEF17F008
:1006000000001950800B226E19501924286E18AE64
:100610000CEF03F00EEF03F00FEF03F028802850EB
:10062000D8B415EF03F017EF03F02AEF03F02828F2
:10063000D8A41DEF03F01FEF03F027EF03F0000E27
:10064000166E000E176E000E186E000E196E188EC4
:1006500032EF03F0000E166E000E176E000E186ECD
:10066000000E196E1D50800B221A1D501D24276E7E
:100670001CAE3DEF03F03FEF03F040EF03F02780A7
:100680002750D8B446EF03F048EF03F05BEF03F0D8
:100690002728D8A44EEF03F050EF03F058EF03F0F3
:1006A000000E1A6E000E1B6E000E1C6E000E1D6EEC
:1006B0001C8E63EF03F0000E1A6E000E1B6E000E10
:1006C0001C6E000E1D6E2750D8B469EF03F06BEF5F
:1006D00003F073EF03F02850D8A471EF03F073EF29
:1006E00003F07DEF03F0000E166E000E176E000E85
:1006F000186E000E196E13EF05F01C501602F3CFA2
:100700002DF0F4CF2EF02D50236E246A256A266A30
:100710002E50296E2A6A2B6A2C6A1B501702F3CFBF
:100720002DF0F4CF2EF02D502326000E242225226A
:1007300026222E502926000E2A222B222C221A5045
:100740001802F3CF2DF0F4CF2EF02D502326000EFB
:100750002422252226222E502926000E2A222B2250
:100760002C2225C026F024C025F023C024F0236AC3
:100770001A501702F3CF2DF0F4CF2EF02D50232670
:100780002E502422000E2522000E26221B50160277
:10079000F3CF2DF0F4CF2EF02D5023262E5024220F
:1007A000000E2522000E262225C026F024C025F0AA
:1007B00023C024F0236A1A501602F3CF2DF0F4CF91
:1007C0002EF02D5023262E502422000E2522000E1E
:1007D00026221C501702F3CF2DF0F4CF2EF02D500F
:1007E00029262E502A22000E2B22000E2C221B50CE
:1007F0001802F3CF2DF0F4CF2EF02D5029262E50D5
:100800002A22000E2B22000E2C221C501802F3CF9D
:100810002DF0F4CF2EF02D501E6E2E501F6E206A3C
:10082000216A20C021F01FC020F01EC01FF01E6AE8
:100830001E5029261F502A2220502B2221502C22C4
:1008400023C01EF024C01FF025C020F026C021F0D8
:10085000190E30EF04F0D890213220321F321E32B0
:10086000E82E2BEF04F01E5029261F502A2220507C
:100870002B2221502C2225C026F024C025F023C095
:1008800024F0236A275028C01EF01F6A1E26000E7F
:100890001F22820E1E242D6EFF0E1F202E6E66EF6D
:1008A00004F0D89029362A362B362C3626AE5BEF4C
:1008B00004F05DEF04F05EEF04F02980D890233659
:1008C0002436253626362D06D8A02E062BAE6BEF05
:1008D00004F06DEF04F051EF04F0276A26AE73EFD9
:1008E00004F075EF04F099EF04F0FF0E23141E6E70
:1008F000FF0E24141F6EFF0E2514206E7F0E26148B
:10090000216E1E501F1020102110D8B48AEF04F061
:100910008CEF04F090EF04F0010E276E99EF04F0D5
:1009200029A095EF04F097EF04F099EF04F08CEF15
:1009300004F02750D8B49FEF04F0A1EF04F0C5EF06
:1009400004F0010E2926000E2A222B222C222CA094
:10095000ACEF04F0AEEF04F0C5EF04F029C01EF0D8
:100960002AC01FF02BC020F02CC021F021342132EE
:1009700020321F321E321EC029F01FC02AF020C0B4
:100980002BF021C02CF02D4A2E2A2EBED0EF04F0E1
:100990002E5008E12D28D8A0D0EF04F0D2EF04F0BB
:1009A000DCEF04F0000E296E000E2A6E800E2B6E16
:1009B0007F0E2C6E09EF05F02EBEE9EF04F02E50ED
:1009C00006E12D04D8B0E7EF04F0E9EF04F0F4EF0E
:1009D00004F0000E296E000E2A6E000E2B6E000E23
:1009E0002C6E226A09EF05F02DC028F0FF0E2916A3
:1009F000FF0E2A167F0E2B16000E2C1628A003EFD2
:100A000005F005EF05F006EF05F02B8ED8902830A5
:100A10002C6E22502C1229C016F02AC017F02BC0C1
:100A200018F02CC019F012004E6A4F6A956A925065
:100A3000F00B926E836A806A94500F09946E20EED8
:100A400053F010EE3BF0090EDBCFE3FFE806FCE2CB
:100A500020EE45F0080EDE6AE806FDE22EEC09F015
:100A6000CDEC08F0939C819C93908190939281901F
:100A7000939E819E140E1A6EAE0E1B6EBB0E1C6EE4
:100A8000400E1D6E040EF2EC08F001C008F002C02A
:100A900009F00A6A0B6A000E27EC06F008C016F08F
:100AA00009C017F00AC018F00BC019F001EC03F0F0
:100AB00016C02FF017C030F018C031F019C032F056
:100AC00001EC07F02FC050F030C051F050C001F0E1
:100AD00051C002F0030E046EE80E036E84EC07F0C2
:100AE0000150300F456E000E046E640E036E50C050
:100AF00001F051C002F084EC07F001C009F002C01F
:100B00000AF0000E0C6E0A0E0B6EE5EC07F00950B1
:100B1000300F466E000E046E0A0E036E50C001F0D8
:100B200051C002F084EC07F001C009F002C00AF0E5
:100B3000000E0C6E0A0E0B6EE5EC07F00950300F3C
:100B4000476E50C009F051C00AF0000E0C6E0A0E3C
:100B50000B6EE5EC07F00950300F486E000E026E88
:100B6000040E016E450E036E400E3CEC08F0030EC1
:100B70003A6E8A0E396E560EE82EFED7392EFCD705
:100B80003A2EFAD7010E85EC08F0526E52C045F0AD
:100B9000000E026E010E016E450E036E500E3CEC0F
:100BA00008F0030E3A6E8A0E396E560EE82EFED706
:100BB000392EFCD73A2EFAD70E0E5218D8A4E3EFEE
:100BC00005F0E5EF05F0EAEF05F04F6A010E4E6E15
:100BD00003EF06F00D0E5218D8A4F1EF05F0F3EF75
:100BE00005F0F8EF05F04E6A010E4F6E03EF06F0C8
:100BF0000B0E5218D8A4FFEF05F001EF06F003EF3B
:100C000006F04E6A4F6A4E04D8A409EF06F00BEFC7
:100C100006F011EF06F0819C819E818081823AEF7F
:100C200005F04F04D8A417EF06F019EF06F01FEFF8
:100C300006F081908192818C818E3AEF05F0819C43
:100C4000819E819081923AEF05F0FEEF17F0106ED1
:100C50001050D8B42EEF06F030EF06F052EF06F049
:100C60000BBE37EF06F035EF06F052EF06F008C086
:100C70000CF009C00DF00AC00EF00BC00FF00C1EF6
:100C80000D1E0E1E0F1E0C2A000E0D220E220F220C
:100C90000CC012F00DC013F00EC014F00FC015F010
:100CA0005AEF06F008C012F009C013F00AC014F0A1
:100CB0000BC015F0085009100A100B10D8A463EFF0
:100CC00006F065EF06F06FEF06F0000E086E000EFE
:100CD000096E000E0A6E000E0B6E00EF07F0960E06
:100CE000116E79EF06F0112AD890153214321332B2
:100CF0001232000E12140C6E000E13140D6E000E44
:100D000014140E6EFE0E15140F6E0C500D100E10F6
:100D10000F10D8A48EEF06F090EF06F073EF06F0F8
:100D20009EEF06F0112A010E1226000E1322142245
:100D30001522D8901532143213321232000E1214CA
:100D40000C6E000E13140D6E000E14140E6EFF0EBA
:100D500015140F6E0C500D100E100F10D8A4B3EF19
:100D600006F0B5EF06F092EF06F0BDEF06F01106C3
:100D7000D890123613361436153614BEC2EF06F06C
:100D8000C4EF06F0CCEF06F0020E1160CAEF06F0D9
:100D9000CCEF06F0B7EF06F011B0D1EF06F0D3EFCD
:100DA00006F0D4EF06F0149ED890113211C00CF06A
:100DB0000D6A0E6A0F6A0CC00FF00E6A0D6A0C6A9B
:100DC0000C5012120D5013120E5014120F50151217
:100DD0001050D8B4EEEF06F0F0EF06F0F8EF06F0A2
:100DE0000BBEF7EF06F0F5EF06F0F8EF06F0158E04
:100DF00012C008F013C009F014C00AF015C00BF0BF
:100E0000120031343234386E3850D8A40AEF07F06B
:100E10000CEF07F016EF07F0000E2F6E000E306E8D
:100E2000000E316E000E326E83EF07F02FC033F0EC
:100E300030C034F031C035F032C036F0200E26EF2D
:100E400007F0D8903632353234323332E82E21EF83
:100E500007F03350376E318EFF0E2F16FF0E30160F
:100E6000FF0E3116000E3216960E385E38BE3DEF7C
:100E700007F03BEF07F053EF07F03850800A970F69
:100E8000D8B045EF07F047EF07F049EF07F00CEF58
:100E900007F0D8903232313230322F32383E49EFBB
:100EA00007F06BEF07F01F0E386459EF07F05BEFA8
:100EB00007F063EF07F00CEF07F0D8902F363036CD
:100EC0003136323638063850D8A469EF07F06BEF68
:100ED00007F05DEF07F03750D8B471EF07F073EF0C
:100EE00007F07BEF07F0321E311E301E2F6C000E14
:100EF0003022312232222FC02FF030C030F031C0EA
:100F000031F032C032F01200066A04BE8CEF07F0F6
:100F10008AEF07F092EF07F0036C041ED8B0042AA2
:100F2000010E066E02BE99EF07F097EF07F09FEFF4
:100F300007F0016C021ED8B0022A010E061A000E3C
:100F4000086E000E076E03500410D8B4AAEF07F025
:100F5000ACEF07F0D4EF07F0010E056EB4EF07F029
:100F6000D89003360436052A04AEB9EF07F0BBEF7C
:100F700007F0B0EF07F0D890073608360350015C51
:100F800004500258D8A0C7EF07F0C9EF07F0CEEF22
:100F900007F00350015E0450025A0780D8900432D3
:100FA0000332052EBBEF07F00650D8B4DAEF07F096
:100FB000DCEF07F0E0EF07F0076C081ED8B0082A56
:100FC00007C001F008C002F012000E6A0ABEEDEF81
:100FD00007F0EBEF07F0F3EF07F0096C0A1ED8B04B
:100FE0000A2A010E0E6E0CBEFAEF07F0F8EF07F0BA
:100FF000FEEF07F00B6C0C1ED8B00C2A0B500C1037
:10100000D8B405EF08F007EF08F02BEF08F0010E59
:101010000D6E0FEF08F0D8900B360C360D2A0CAE83
:1010200014EF08F016EF08F00BEF08F00B50095C16
:101030000C500A58D8A01FEF08F021EF08F025EF58
:1010400008F00B50095E0C500A5AD8900C320B3243
:101050000D2E16EF08F00E50D8B431EF08F033EF34
:1010600008F037EF08F0096C0A1ED8B00A2A09C048
:1010700009F00AC00AF01200046E0F01436B446BC2
:1010800004C041FF426B01C045FF0350D96EDA6ACC
:10109000DF50466F0350D96EDA6A010ED926DF5051
:1010A000476F0350D96EDA6A020ED926DF50486FB7
:1010B0000350D96EDA6A030ED926DF50496F035008
:1010C000D96EDA6A040ED926DF504A6F0350D96E02
:1010D000DA6A050ED926DF504B6F0350D96EDA6AF3
:1010E000060ED926DF504C6F0350D96EDA6A070E10
:1010F000D926DF504D6F408740B781EF08F083EF6E
:1011000008F07CEF08F040511200016E0150D8A4A5
:101110008CEF08F08EEF08F09CEF08F082500F0B78
:101120000F0AD8B496EF08F098EF08F0CBEF08F06C
:1011300082500F0BCCEF08F00104D8A4A2EF08F006
:10114000A4EF08F0CBEF08F082500F0B0F0AD8B4D1
:10115000ACEF08F0AEEF08F0BDEF08F05D045E10F4
:10116000D8A4B5EF08F0B7EF08F0BDEF08F0000E17
:101170005E6E000E5D6E98EF08F082500F0B0F0A46
:10118000D8A4C5EF08F0C7EF08F0CBEF08F0000EC9
:101190005E6E010E5D6E0F0E1200939493861F0E0D
:1011A0006F166F8E800E6E18D8A4D9EF08F0DBEFA3
:1011B00008F0D2EF08F0776AE10E706E1B0E716EC8
:1011C000030E726E0D01D46B0F01026B036B700E78
:1011D000006F016B8F0E186F19691F0E6F166F501D
:1011E000606A1200076E07C003F0D8900336D890EB
:1011F0000336C250C30B0310C26EC282C2B203EFE9
:1012000009F005EF09F0FEEF08F0C350C4CF03F07A
:10121000046A03C004F0036A0310056E0450066EEE
:1012200005C001F006C002F01200780EF66E120E34
:10123000F76E000EF86E00EE53F010EE0CF00900A1
:10124000F5CFEEFFE550E150FAE100EE60F0160E4A
:10125000EE6AE806FDE1000114EF05F0C08EC09AC9
:10126000C088C096C090C082C094C292C19AC198F2
:10127000C46AC36AC2801200E721CB6B2D6EEE23D5
:04128000EF6F01000B
:042FFC0015EF09F0D4
:020000040020DA
:08000000FFFFFFFFFFFFFFFF00
:020000040030CA
:0E000000FF071F1FFF8285FF0FC00FE00F409C
:00000001FF
