:020000040000FA
:04000000FEEF17F008
:102BD80000EE01F00D0EEE6AE806FDE1000EF86E5B
:102BE8000001DBEF16F0116E000E0E6E105003ECB4
:102BF80016F0010E0E6E115003EC16F012000F6E57
:102C08000EB009EF16F00CEF16F082820DEF16F0F9
:102C180082920FC083FF82848294958E82808292F2
:102C28008284829483BE1BEF16F01DEF16F014EF1A
:102C380016F08290959E1200000E0E6E125003EC54
:102C480016F033EF16F0010E0E6E10C0F6FF11C02D
:102C5800F7FF0800F55003EC16F0104A112A10C0CF
:102C6800F6FF11C0F7FF0800F5500009D8A43FEFA0
:102C780016F041EF16F027EF16F0120060AE47EF9E
:102C880016F049EF16F065EF16F063CF01F064CF48
:102C980002F061CF03F062CF04F065CF05F066CF94
:102CA80006F067CF07F068CF08F069CF09F06ACF60
:102CB8000AF06BCF0BF06CCF0CF06DCF0DF0609E6F
:102CC800A4901200939493861F0E6F166F8E800E39
:102CD8006E18D8A472EF16F074EF16F06BEF16F0BA
:102CE800776AE10E706E1B0E716E030E726E010E26
:102CF8000D01D46F0F01026B036B700E006F016B37
:102D08008F0E186F19691F0E6F166F50606A1200C8
:102D1800956A9450F80B946E8290C30E106ECD0E87
:102D2800E82EFED7102EFCD70000000E0E6E330ED4
:102D380003EC16F01B0E106E9E0EE82EFED7102E1A
:102D4800FCD700D0000E0E6E330E03EC16F0A60E64
:102D5800E82EFED700D0000E0E6E330E03EC16F0F0
:102D680000D000D00000000E0E6E020E03EC16F02C
:102D7800000E0E6E380E03EC16F0A60EE82EFED7E7
:102D880000D0000E0E6E010E03EC16F0040E106E4D
:102D98003E0EE82EFED7102EFCD7000E0E6E0C0E3F
:102DA80003EC16F0A60EE82EFED700D012008CEC2D
:102DB80016F066EC16F0939E819E939C819C9390EE
:102DC800819093928192000E186E000E176E000E7D
:102DD8001A6E000E196EE70E106E2F0E116E800E11
:102DE800126E20EC16F042EC16F0100E0318D8A460
:102DF80000EF17F002EF17F00CEF17F0C00E106E8F
:102E08000650F7EC15F0C10E106E0750F7EC15F0F0
:102E180042EC16F0200E0318D8A415EF17F017EFA0
:102E280017F026EF17F0C30E106E0650F7EC15F0EA
:102E3800C40E106E0750F7EC15F0C50E106E075053
:102E4800F7EC15F042EC16F0300E0318D8A42FEF6B
:102E580017F031EF17F036EF17F0C70E106E065067
:102E6800F7EC15F042EC16F0400E0318D8A43FEF2B
:102E780017F041EF17F055EF17F0C90E106E065016
:102E8800F7EC15F0CA0E106E0750F7EC15F0CB0EE4
:102E9800106E0850F7EC15F0CC0E106E0950F7ECD8
:102EA80015F042EC16F0500E0318D8A45EEF17F098
:102EB80060EF17F0EFEF16F00E0E0618D8A467EFC4
:102EC80017F069EF17F07AEF17F0CE0E106E4C0E70
:102ED800F7EC15F0819C819E000E186E010E176E9E
:102EE800000E1A6E000E196EB3EF17F00D0E0618CD
:102EF800D8A481EF17F083EF17F096EF17F0CE0EF6
:102F0800106E520EF7EC15F081908192818C818EB3
:102F1800000E1A6E010E196E000E186E000E176E56
:102F280078EF17F00B0E0618D8A49DEF17F09FEF57
:102F380017F0B3EF17F0F70E106E2F0E116ECE0EBE
:102F4800126E20EC16F081908192819C819E000E79
:102F5800186E000E176E000E1A6E000E196E17040A
:102F68001810D8A4BAEF17F0BCEF17F0D1EF17F08C
:102F7800818081820F0E146EA00E136E1306D8A0E6
:102F88001406132806E11428D8A4CDEF17F0CFEFC4
:102F980017F0C2EF17F08190819219041A10D8A483
:102FA800D8EF17F0DAEF17F0EFEF16F0818C818E7B
:102FB8000F0E166EA00E156E1506D8A0160615284B
:102FC80006E11628D8A4EBEF17F0EDEF17F0E0EFC5
:102FD80017F0819C819EEFEF16F0FEEF17F000537B
:102FE800442054454D20475220525020494E004F0E
:032FF80046000090
:042FFC00ECEF15F0F1
:020000040020DA
:08000000FFFFFFFFFFFFFFFF00
:020000040030CA
:0E000000FF071F1FFF8285FF0FC00FE00F409C
:00000001FF
